:10000000A00B0020E52400003F4F00001525000054
:100010001525000015250000152500000000000032
:10002000000000000000000000000000412400006B
:100030001525000000000000ED230000194F00000E
:10004000A5240000A5240000A5240000A52400008C
:10005000A5240000A5240000A5240000A52400007C
:10006000A5240000A5240000A5240000A52400006C
:10007000A5240000A5240000A5240000A52400005C
:10008000A5240000A5240000A5240000A52400004C
:10009000A5240000A5240000A5240000A52400003C
:1000A000A5240000A5240000A5240000A52400002C
:1000B000A5240000A5240000A5240000A52400001C
:1000C000A5240000A5240000A5240000A52400000C
:0C00D000A5240000A5240000A5240000C9
:0400DC00FFFFFFFF24
:1000E00081F0004102E000BF83F0004330B54FEAE9
:1000F00041044FEA430594EA050F08BF90EA020F56
:100100001FBF54EA000C55EA020C7FEA645C7FEAE8
:10011000655C00F0E2804FEA5454D4EB5555B8BF0B
:100120006D420CDD2C4480EA020281EA030382EA7C
:10013000000083EA010180EA020281EA0303362D0E
:1001400088BF30BD11F0004F4FEA01314FF4801CE1
:100150004CEA113102D0404261EB410113F0004FF3
:100160004FEA03334CEA133302D0524263EB4303AA
:1001700094EA050F00F0A780A4F10104D5F1200E48
:100180000DDB02FA0EFC22FA05F2801841F10001A3
:1001900003FA0EF2801843FA05F359410EE0A5F177
:1001A00020050EF1200E012A03FA0EFC28BF4CF0A8
:1001B000020C43FA05F3C01851EBE37101F000455E
:1001C00007D54FF0000EDCF1000C7EEB00006EEB6B
:1001D0000101B1F5801F1BD3B1F5001F0CD34908F5
:1001E0005FEA30004FEA3C0C04F101044FEA44524C
:1001F00012F5800F80F09A80BCF1004F08BF5FEAD3
:10020000500C50F1000041EB045141EA050130BDB2
:100210005FEA4C0C404141EB0101013C28BFB1F5C4
:10022000801FE9D291F0000F04BF01460020B1FA0F
:1002300081F308BF2033A3F10B03B3F120020CDAE2
:100240000C3208DD02F1140CC2F10C0201FA0CF0C0
:1002500021FA02F10CE002F11402D8BFC2F1200C25
:1002600001FA02F120FA0CFCDCBF41EA0C019040DB
:10027000E41AA2BF01EB0451294330BD6FEA040424
:100280001F3C1CDA0C340EDC04F11404C4F120020F
:1002900020FA04F001FA02F340EA030021FA04F321
:1002A00045EA030130BDC4F10C04C4F1200220FA78
:1002B00002F001FA04F340EA0300294630BD21FAB6
:1002C00004F0294630BD94F0000F83F4801306BF7C
:1002D00081F480110134013D4EE77FEA645C18BF70
:1002E0007FEA655C29D094EA050F08BF90EA020F07
:1002F00005D054EA000C04BF1946104630BD91EAFF
:10030000030F1EBF0021002030BD5FEA545C05D101
:100310004000494128BF41F0004130BD14F5800440
:100320003CBF01F5801130BD01F0004545F0FE41B4
:1003300041F470014FF0000030BD7FEA645C1ABFE9
:10034000194610467FEA655C1CBF0B46024650EA20
:10035000013406BF52EA033591EA030F41F400214C
:1003600030BD00BF90F0000F04BF0021704730B5D2
:100370004FF4806404F132044FF000054FF00001A7
:1003800050E700BF90F0000F04BF0021704730B568
:100390004FF4806404F1320410F0004548BF40423D
:1003A0004FF000013EE700BF42004FEAE2014FEA92
:1003B00031014FEA02701FBF12F07F4393F07F4F6D
:1003C00081F06051704732F07F4208BF704793F070
:1003D0007F4F04BF41F40021704730B54FF4607483
:1003E00001F0004521F000411CE700BF50EA010286
:1003F00008BF704730B54FF000050AE050EA01022F
:1004000008BF704730B511F0004502D5404261EB9E
:1004100041014FF4806404F132045FEA915C3FF4DF
:10042000D8AE4FF003025FEADC0C18BF03325FEA7C
:10043000DC0C18BF033202EBDC02C2F1200300FA2D
:1004400003FC20FA02F001FA03FE40EA0E0021FA52
:1004500002F11444BDE600BF70B54FF0FF0C4CF440
:10046000E06C1CEA11541DBF1CEA135594EA0C0FF2
:1004700095EA0C0F00F0DEF82C4481EA030621EA2D
:100480004C5123EA4C5350EA013518BF52EA033568
:1004900041F4801143F4801338D0A0FB02CE4FF01A
:1004A0000005E1FB02E506F00042E0FB03E54FF04A
:1004B0000006E1FB03569CF0000F18BF4EF0010E42
:1004C000A4F1FF04B6F5007F64F5407404D25FEA3E
:1004D0004E0E6D4146EB060642EAC62141EA5551F1
:1004E0004FEAC52040EA5E504FEACE2EB4F1FD0C33
:1004F00088BFBCF5E06F1ED8BEF1004F08BF5FEAB1
:10050000500E50F1000041EB045170BD06F0004662
:1005100046EA010140EA020081EA0301B4EB5C040F
:10052000C2BFD4EB0C0541EA045170BD41F4801107
:100530004FF0000E013C00F3AB8014F1360FDEBF2C
:10054000002001F0004170BDC4F10004203C35DA08
:100550000C341BDC04F11404C4F1200500FA05F38B
:1005600020FA04F001FA05F240EA020001F000422C
:1005700021F0004110EBD37021FA04F642EB0601A2
:100580005EEA430E08BF20EAD37070BDC4F10C04CC
:10059000C4F1200500FA04F320FA05F001FA04F290
:1005A00040EA020001F0004110EBD37041F100017C
:1005B0005EEA430E08BF20EAD37070BDC4F1200587
:1005C00000FA05F24EEA020E20FA04F301FA05F2EF
:1005D00043EA020321FA04F001F0004121FA04F297
:1005E00020EA020000EBD3705EEA430E08BF20EA67
:1005F000D37070BD94F0000F0FD101F000464000A1
:1006000041EB010111F4801F08BF013CF7D041EA22
:10061000060195F0000F18BF704703F00046520026
:1006200043EB030313F4801F08BF013DF7D043EAF7
:100630000603704794EA0C0F0CEA135518BF95EAAD
:100640000C0F0CD050EA410618BF52EA4306D1D134
:1006500081EA030101F000414FF0000070BD50EA53
:10066000410606BF1046194652EA430619D094EADD
:100670000C0F02D150EA013613D195EA0C0F05D1C7
:1006800052EA03361CBF104619460AD181EA03011B
:1006900001F0004141F0FE4141F470014FF00000D3
:1006A00070BD41F0FE4141F4780170BD70B54FF06E
:1006B000FF0C4CF4E06C1CEA11541DBF1CEA1355EE
:1006C00094EA0C0F95EA0C0F00F0A7F8A4EB0504D0
:1006D00081EA030E52EA03354FEA013100F08880C7
:1006E0004FEA03334FF0805545EA131343EA126390
:1006F0004FEA022245EA111545EA10654FEA002645
:100700000EF000419D4208BF964244F1FD0404F5FD
:10071000407402D25B084FEA3202B61A65EB030559
:100720005B084FEA32024FF480104FF4002CB6EB16
:10073000020E75EB030E22BFB61A754640EA0C0096
:100740005B084FEA3202B6EB020E75EB030E22BFD6
:10075000B61A754640EA5C005B084FEA3202B6EB17
:10076000020E75EB030E22BFB61A754640EA9C00D6
:100770005B084FEA3202B6EB020E75EB030E22BFA6
:10078000B61A754640EADC0055EA060E18D04FEA64
:10079000051545EA16754FEA06164FEAC30343EA04
:1007A00052734FEAC2025FEA1C1CC0D111F4801FD1
:1007B0000BD141EA00014FF000004FF0004CB6E7CA
:1007C00011F4801F04BF01430020B4F1FD0C88BF69
:1007D000BCF5E06F3FF6AFAEB5EB030C04BFB6EB74
:1007E000020C5FEA500C50F1000041EB045170BD67
:1007F0000EF0004E4EEA113114EB5C04C2BFD4EB94
:100800000C0541EA045170BD41F480114FF0000E17
:10081000013C90E645EA060E8DE60CEA135594EA93
:100820000C0F08BF95EA0C0F3FF43BAF94EA0C0F96
:100830000AD150EA01347FF434AF95EA0C0F7FF40B
:1008400025AF104619462CE795EA0C0F06D152EA5F
:1008500003353FF4FDAE1046194622E750EA410643
:1008600018BF52EA43067FF4C5AE50EA41047FF454
:100870000DAF52EA43057FF4EBAE12E74FEA4102B7
:10088000B2F1E04324BFB3F5001CDCF1FE5C0DD9EE
:1008900001F0004C4FEAC0024CEA5070B2F1004F38
:1008A00040EB830008BF20F00100704711F0804F3B
:1008B00021D113F13872BCBF01F00040704741F400
:1008C00080114FEA5252C2F11802C2F1200C10FA04
:1008D0000CF320FA02F018BF40F001004FEAC123E8
:1008E0004FEAD32303FA0CFC40EA0C0023FA02F38C
:1008F0004FEA4303CCE77FEA625307D150EA013362
:100900001EBF4FF0FE4040F44000704701F0004031
:1009100040F0FE4040F40000704700BF53B94AB9B0
:10092000002908BF00281CBF4FF0FF314FF0FF30F7
:1009300000F06CB9ADF1080C6DE904CE00F006F8DA
:10094000DDF804E0DDE9022304B070472DE9F0474B
:10095000089E0D4604468E46002B40F082808A4257
:10096000174646D9B2FA82F24AB1C2F1200105FA1D
:1009700002F320FA01F1974041EA030E94404FEA56
:100980001748230CBEFBF8FCB9B208FB1CEE43EA87
:100990000E430CFB01F098420AD9FB180CF1FF350D
:1009A00080F01681984240F21381ACF1020C3B4476
:1009B0001B1AA4B2B3FBF8F008FB103344EA03445B
:1009C00000FB01F1A14209D93C1900F1FF3380F08D
:1009D0000181A14240F2FE8002383C44641A40EAA0
:1009E0000C4000211EB1D4400023C6E90043BDE8FD
:1009F000F08702B9FFDEB2FA82F2002A4FD1CB1B98
:100A00004FEA174E1FFA87F80121B3FBFEFC250CB5
:100A10000EFB1C3345EA034508FB0CF3AB4207D938
:100A20007D190CF1FF3002D2AB4200F2E780844620
:100A3000ED1AA3B2B5FBFEF00EFB105543EA0544D8
:100A400008FB00F8A04507D93C1900F1FF3302D29A
:100A5000A04500F2D7801846A4EB080440EA0C40F9
:100A6000C0E78B4208D9002E00F0AF800021C6E914
:100A700000050846BDE8F087B3FA83F100294BD1A1
:100A8000AB4202D3824200F2B780841A65EB0303C3
:100A900001209E46002EAAD0C6E9004EA7E7C2F16B
:100AA000200C01FA02F3974020FA0CF04FEA174E9F
:100AB00021FA0CFC1843BCFBFEF1050C0EFB11CC1B
:100AC0001FFA87F845EA0C4501FB08F3AB4204FA2C
:100AD00002F409D97D1901F1FF3C80F08B80AB4213
:100AE00040F2888002393D44EB1A85B2B3FBFEF038
:100AF0000EFB103345EA034500FB08F3AB4207D970
:100B00007D1900F1FF3C71D2AB426FD902383D44F0
:100B1000EB1A40EA014178E7C1F1200C8B4022FA40
:100B20000CF71F4320FA0CF405FA01F34FEA174EB5
:100B300025FA0CF51C43230CB5FBFEF91FFA87F8C8
:100B40000EFB195543EA054509FB08FAAA4502FAC6
:100B500001F200FA01F308D97D1909F1FF3047D2FB
:100B6000AA4545D9A9F102093D44A5EB0A05A4B25D
:100B7000B5FBFEF00EFB105544EA054400FB08F8F7
:100B8000A04507D93C1900F1FF352DD2A0452BD93E
:100B900002383C4440EA0940A4EB0804A0FB028967
:100BA0004C45C6464D4619D316D05EB1B3EB0E0286
:100BB00064EB050404FA0CFCCA404CEA0202CC4087
:100BC000C6E900240021BDE8F087314630460EE733
:100BD000AC46EDE6184601E74345E6D2B8EB020E17
:100BE00069EB07050138E0E72846D3E760468FE761
:100BF0008146BAE7614677E708464BE7ACF1020C5D
:100C00003D4415E702383C4426E700BF704700BF6B
:100C1000F0B56D4E89B004AD3B2304460122306827
:100C20008DF81030294603F06DFE0E230293032346
:100C3000306801958DF80C30836801225D6801A948
:100C40006823A8479DF91100FFF79CFB5AA3D3E93D
:100C50000023FFF72BFD06469DF910000F46FFF716
:100C600091FB02460B4630463946FFF73FFAFFF745
:100C700005FE20609DF91300FFF784FB4EA3D3E926
:100C80000023FFF713FD06469DF912000F46FFF7FC
:100C900079FB02460B4630463946FFF727FAFFF745
:100CA000EDFD60609DF91500FFF76CFB42A3D3E9F1
:100CB0000023FFF7FBFC06469DF914000F46FFF7E3
:100CC00061FB02460B4630463946FFF70FFAFFF745
:100CD000D5FDA0609DF91700FFF754FB36A3D3E9BB
:100CE0000023FFF7E3FC06469DF916000F46FFF7C9
:100CF00049FB02460B4630463946FFF7F7F9334BBE
:100D00000022FFF7F3F92EA3D3E90023FFF7EEF952
:100D10002F4B0022FFF7CAFCFFF7B0FDA0619DF941
:100D20001900FFF72FFB24A3D3E90023FFF7BEFC34
:100D300006469DF918000F46FFF724FB02460B46B6
:100D400030463946FFF7D2F9FFF798FDE0609DF98C
:100D50001B00FFF717FB18A3D3E90023FFF7A6FC3E
:100D600006469DF91A000F46FFF70CFB02460B469C
:100D700030463946FFF7BAF9FFF780FD20619DF94B
:100D80001D00FFF7FFFA0CA3D3E90023FFF78EFC49
:100D900006469DF91C000F46FFF7F4FA02460B4683
:100DA00030463946FFF7A2F9FFF768FD606109B0E8
:100DB000F0BD00BFAFF300800000000080842E4132
:100DC00000000000003EC740A8010020004880400D
:100DD0000040754007B56B23ADF80430044B022288
:100DE000186801A903F08EFD03B05DF804FB00BF95
:100DF000A801002070B594B01F4802F0ABFE1F4B55
:100E0000186020B91E4801F093FD14B070BDFFF7C3
:100E1000E1FF1C4E0DA8FFF7FBFE1398FFF7C4FA85
:100E2000044612980D46FFF7BFFACDE90A01119862
:100E3000FFF7BAFACDE908011098FFF7B5FACDE946
:100E400006010F98FFF7B0FACDE904010E98FFF7FD
:100E5000ABFACDE902010D98FFF7A6FA2246CDE9DB
:100E600000012B46304601F063FD00214FF4803035
:100E700003F0C4FACEE700BFF8570000A801002035
:100E8000FE570000195800000B6801330B60014B3E
:100E90001B68184700000020014B1860704700BF16
:100EA0000000002007B50B460021024601910348CF
:100EB00001A900F063FA03B05DF804FB890E00009D
:100EC0002DE9F84FB0F8189019F008080446934639
:100ED0000DD001290CBF49F0100949F02009A0F8F4
:100EE00018908BF31188BFF36F8FBDE8F88F09F06E
:100EF0000709022907D1204603F03FFD0028F0D062
:100F00000128238B50D16769218B002F15DA2568C2
:100F100021F00701C4E9008841F001012183002686
:100F2000218B01F0070ACA4502D0A368002B5CD1CF
:100F30000DB9002E74D0002358E001F007035A1FAA
:100F4000012A20D821F00701062B256889B2C4E9BF
:100F500000880CD1002D2B4638BF00232BB1628BAB
:100F60001B6801326283002BF8D141F0020121831A
:100F7000204603F002FD06460028D1D0238B43F023
:100F800020032383CBE7042B0CD121F0070189B286
:100F90002183204603F0F1FC05460028BFD041F034
:100FA000200121830025BAE7032809D1226923F013
:100FB0000703166843F00603238300252F46AFE797
:100FC000042806D1226923F00703566843F004037E
:100FD000F2E7052806D1226923F00703966843F05B
:100FE0000503E9E700252E46E8E7012341F0080163
:100FF00021838BF31188BFF36F8F03BB002D33D197
:1010000016B121492046B0474FF02003EFF3118B72
:1010100083F31188BFF36F8F238B23F0080323839F
:10102000238BDA0628D523F0100323830121B4F89B
:10103000189009F0070900297FF45BAF51E7A16818
:101040000029DBD00B68D1F804B0002B38BF002397
:10105000994652463B462046D847B9F1000FCDD0BD
:10106000D9F800304946EEE729463B46524620462D
:101070002D6803F09EFCC1E713F020011EBF23F092
:10108000200323830221D2E7DF490000F0B50022CC
:10109000C0E9002282604A78252A034633D0013114
:1010A000084611F8012B2B2A3DD02FD8202A3ED0FC
:1010B000232A40D01A7802F04401442902D16FF368
:1010C00086121A7002782A2A4CD1198841F4C0710C
:1010D000421C198011782E294FD151782A2945D0E8
:1010E0000132154600210A27104610F8014BA4F1E1
:1010F0003006092E53D9AA421FBF5878996040F094
:101100000200587039E0881CDA70F0BD2D2A05D035
:10111000302ACFD11A7842F0400202E01A7842F029
:1011200004021A70BCE71A7842F00802F9E71A784C
:1011300042F01002F5E71A7842F02002F1E707FBCF
:10114000015130392246144614F8015BA5F13006EE
:10115000092EF4D990421FBF1878596040F08000E2
:101160001870B7E7024600210A27ECE7597821F00A
:10117000060141F0060159700232114611F8010BC7
:101180006C2854D010D8682816D06A2858D04C281B
:101190005CD059786FF3C6015970114615E007FB12
:1011A0000141303902469FE774285C784BD07A2899
:1011B000EFD12246062036E050785C78682830D19E
:1011C000012161F3C6045C70911C084610F8014BC4
:1011D000DC70782C00F2B180572C42D8412C04D01E
:1011E000A4F14502022A00F2A8809A7804F0DF04F4
:1011F0000421A4F1410561F302026C4259789A700E
:101200006C4164F3C7110E065970CAB200F1B38085
:1012100002F07801182940F08D806FF3C6025A70F1
:1012200078E02246022060F3C6025A70CDE750787B
:101230005C786C2801D10421C3E722460320F2E741
:101240005A780520EFE722460720ECE71A8822F4B7
:10125000F04222F0020242F4804242F002021A807E
:10126000B3E7A4F15802202A67D801A151F822F06F
:10127000191300003B1300003B1300003B13000058
:101280003B1300003B1300003B1300003B13000026
:101290003B130000EB1100003B130000191300008A
:1012A000F5120000EB110000EB110000EB11000043
:1012B0003B130000F51200003B1300003B1300003D
:1012C0003B1300003B1300004513000019130000FE
:1012D0005F1300003B1300003B1300005F1300008E
:1012E0003B130000191300003B1300003B130000E8
:1012F000191300009A78012161F302029A705A785A
:1013000002F07802402A02BF197841F001011970F9
:10131000632C04D0002205E09A780221ECE7003A21
:1013200018BF01221978C1F34004224362F341013E
:101330001970EAE612F0380FECD01A7842F0010288
:101340001A70E7E79A78032161F302029A705A78DB
:1013500002F07802A2F140014A424A41E2E79A785B
:10136000032161F302029A705A7812F0780F14BFC9
:1013700001220022D6E70122D4E700BF2DE9F04F79
:10138000A1B08A46039014469B464FF0000920788E
:1013900008B9484689E125280AD0039B5146984759
:1013A0000028C0F28281631C0B9309F1010968E0F7
:1013B000214616A8FFF76AFE9DF859300B90D80712
:1013C0001CD55BF8042B0A92002A08DA9DF85820F5
:1013D00042F004028DF858200A9A52420A925907A4
:1013E00014D55BF8045B002D13DA9DF859306FF3C8
:1013F00041038DF859304FF0FF350AE09DF9582030
:10140000002AB4BF179A4FF0FF32E7E79A07F2D5E8
:10141000189D9DF859200023CDE917339DF85A30C7
:1014200003F00703042B07D1930705D49DF9593026
:10143000002BB4BF0D2506259DF85A3003F0070395
:10144000012BC2F3C3024FF000004FF0000126D180
:10145000D31E042B17D8DFE803F003323216160030
:101460005BF8040BC1179DF85860B70747D00B9B7A
:1014700003982246514603F0A7FC0028C0F21581CC
:1014800081440B9C83E75BF8040B012A4FEAE0716F
:1014900001D1C6B20FE0022AE5D100B2E2E7022B89
:1014A0001FD1D31E042B11D8DFE803F00309091064
:1014B00010005BF8046B002330461946D3E70BF1AC
:1014C000070B2BF0070BFBE80201CCE75BF8046B82
:1014D0000023012A30461946DBD0022AC3D1B6B216
:1014E000E9E7042B06D10BF1070B2BF0070BFBE808
:1014F0000201B8E7032B08BF5BF8040BB3E79DF8C4
:101500005B70782FBDD8572F7ED8252F00F0C6806E
:10151000242FB6D9412F03D0A7F14503022BB0D811
:10152000002871F10003C0F25C81320700F15B8199
:1015300016F0100618BF2026C1F313030690079378
:10154000DDE90623C1F30A54CDE91223002C40F053
:101550004C81079A0346134314BF4FF0010C4FF020
:10156000000C0799CB020699CA0243EA515344EA98
:1015700002010C91E11719430D91DDE90C01462F91
:1015800008BF66270143CDE9122300F0D081BCF1EA
:10159000000F40F05E81139B43F00043A4F2FE383D
:1015A0001393002418F1020FC0F25F81B8F1000F0D
:1015B00000F3978112A808F1010803F06FFBB8F15E
:1015C000040FF7D107F0DF03472B40F0B681E31C8F
:1015D00002DBA54280F2AE81023F002DFFB200DDAA
:1015E000013D9DF85830980600F1A781002DD4BF29
:1015F00000230123662F049340F0A181631940F179
:101600009F814FF000089FE1A7F15803202B3FF680
:1016100038AF01A454F823F08117000083140000B0
:10162000831400008314000083140000831400005E
:1016300083140000831400008314000021150000AF
:1016400083140000CB1600002F17000021150000A6
:101650002115000021150000831400002F17000041
:10166000831400008314000083140000831400001E
:10167000B5170000811700008517000083140000D3
:1016800083140000B11600008314000081170000CD
:10169000831400008314000081170000039B51464F
:1016A000384698470028BFF680AE21B0BDE8F08FDD
:1016B000044603F055FC002D02DBA84228BF284653
:1016C00004EB0008002634B9DBE68DF86400002640
:1016D0000DF1650819ACA8EB040706B101379DF8B8
:1016E0005A10CB0640F106820237179A0A9B480629
:1016F000174444BF189ABF18002B40F30E829DF880
:1017000058205107A3EB0707C2F3800500F144827C
:10171000530640F13D8246B1039B514630469847FF
:101720000028C2DB09F101092E46302531E23407D9
:1017300024D416F0100618BF2026002871F10003EB
:1017400003DA404261EB41012D260DF17D03009348
:1017500016AA19AB03F0EDFA0446002D0DF17D0336
:101760000ADB9DF858101A1B6FF3861195428DF80D
:10177000581001D9AD1A17959846A4E72B26DCE737
:101780000026E2E7002800F0AF810DF17D03009311
:1017900016AA19AB002103F0CCFABDF85A3003F0B9
:1017A000EF0343F4F04343F010030446ADF85A301E
:1017B0000026D2E7072A3FF664AEDFE802F00F0406
:1017C000070F0A0A0F0F80F800905AE6A0F8009061
:1017D00057E64A46D317C0E9002352E6C0F8009006
:1017E0004FE62D26A8E62B26A6E640F2FF739C4284
:1017F0002BD1DDE906342343A7F1410717D1192F77
:1018000095BF44F6496346F66963ADF86430ADF8B8
:10181000643094BF462366238DF866309DF85830B7
:101820006FF386138DF858300DF1670852E7192FC2
:1018300095BF44F24E1346F26E13ADF86430ADF826
:10184000643094BF4E236E23E6E74FF0000C88E629
:10185000013C92185B41002A73F10001F8DACDE9EE
:10186000122398E612A803F019FADDE9122C0023DE
:10187000CDF820C00993DDE90801002908BFB0F1C7
:10188000333F08F10108EDD20520A2FB0023CDE98A
:101890000423059B00FB0C330593DDE90423CDE90C
:1018A0001223013C4FF0000C0598002100236FF03B
:1018B00000428B4208BF824208D2BCF1000F3FF4C5
:1018C00071AEDDE90423CDE912236BE6049BDB183E
:1018D0000493059B5B41059308F1FF384FF0010C21
:1018E000E2E712A803F0ECF9129BDDF84CE0049358
:1018F00008F1FF3801344FF0000C002300216FF095
:101900000040994208BF704507D2BCF1000F3FF478
:101910004DAE049BCDE9123E48E6049BDB180493D0
:101920004EEB0E0E08F1FF384FF0010CE5E70024F6
:10193000A0463FE62D1B662753E600235AE66B1CA4
:10194000102BA8BF10239846102211924FF000636D
:101950000022CDE91423B8F1010822D2129B149A77
:1019600015999B18139A41EB0202CDE9123202F04D
:1019700070430E9300230F93DDE90E23134306D02B
:1019800012A803F09DF912A803F088F90134662F1C
:101990007CD1002C0CDC30238DF864300DF165080F
:1019A00015E014A803F08CF914A803F077F9D2E736
:1019B0000DF16408119A002A07DD11A912A803F09D
:1019C000A1F9013C08F8010BF4D1179400249DF80B
:1019D0005820910601D4002D1BDD2E2208F8012B82
:1019E00094B1002D15DD6242AA42A8BF2A469DF897
:1019F0005A101792002AA5EB0205D4BF002201223B
:101A000062F345118DF85A10002D02DD119A002A5B
:101A100052DC049B002B5AD1189507F0DF02452AAF
:101A200022D1002C4146BABF64422D222B22632CC6
:101A300001F8027B88F801200ADD642094FBF0F2B3
:101A400002F1300508F1030188F8025000FB12444E
:101A50000A20884694FBF0F200FB124402F13005A4
:101A6000303408F8025B4C70179A002A3ADC189A56
:101A7000002AD4BF002201229DF85A1062F3861179
:101A800000228DF85A1088F8002023E611A912A828
:101A900003F038F99DF858308DF86400302818BFED
:101AA00004F1FF349A0601D4002D0DDD2E238DF8AC
:101AB00065300DF16608A7E711A912A803F022F915
:101AC000013D08F8010B9FE70DF16508A1E7002231
:101AD0001892414618F8012D302AFAD02E2A18BF44
:101AE00088469AE70122C7E7DFF8D8810646A8F1C1
:101AF0000504F0E50D0748BF0137F6E5039B5146A5
:101B0000284698470028FFF6D0AD0A9BA7EB0309AB
:101B1000002B03F1FF330A93F0DC46B1039B5146DF
:101B2000304698470028FFF6C0AD09F101099DF83D
:101B30005A20550640F181809DF95920002A2DDB5D
:101B4000A9EB04092078A0F13002092A254609EB07
:101B5000040604F1010445D99DF85A20179C90060B
:101B600006D4A719002CA7EB040604F1FF343FDCD0
:101B700028782E280AD1039B514698470028FFF663
:101B800094AD002C06F1010639DC0135761B42E0EC
:101B900020250A974F44B8E70A97BEE72546A9EBE8
:101BA00004092F4609EB050415F8010B702813D121
:101BB000189D25442A1B002A36DC039843463A46E2
:101BC000514603F001F90028FFF66FAD20440A9B4F
:101BD000034481461D466FE0039B51469847002809
:101BE000DFDA62E5039B514698470028AADA5CE5F4
:101BF000039B5146302098470028B3DA55E5039BF4
:101C0000514630209847013CB8E7039B514698471E
:101C10000028FFF64AAD2F46741915F8010BA0F104
:101C20003002092AF1D9C3E7039B51463020984777
:101C30000028FFF63AAD0134BCE7D10601D4120703
:101C400008D5039B5146302098470028FFF62DAD5C
:101C500009F101099DF85A20D30609D59DF85B00CA
:101C6000039B514698470028FFF61FAD09F1010973
:101C7000179D4D44A5EB0902002A0ADC0398434650
:101C80002246514603F0A0F80028FFF60EAD484466
:101C90009DE7039B5146302098470028FFF605AD8D
:101CA00009F10109E6E7039B5146202098470028E7
:101CB000FFF6FBAC09F10109A5EB0903002BF2DCEF
:101CC000FFF7DFBB6058000010B50748074C01F074
:101CD00041FF074B1860204600F018FE2046FFF732
:101CE000DBF8002010BD00BF61580000F51C0000AB
:101CF000AC0100200A2838B5074D044604D12868F5
:101D000083680D215B68984728688368E1B25B6847
:101D10009847204638BD00BFAC0100200E4A70B580
:101D2000841AA3100D4C5C430546E4B20C2000FB62
:101D300004200E464021084403F066F8011E05DB2E
:101D4000074B03EBC40463689847002128463346D9
:101D5000BDE87040184700BFC0010020B76DDBB67A
:101D60002C5700002DE9F041104E841BA310104C9D
:101D70005C43E4B20C256543804605F140000F4604
:101D80003044402103F059F8011E09DB094A731958
:101D9000C3E90E27084B53F83430BDE8F04118472B
:101DA00040463B46BDE8F041184700BFC001002057
:101DB000B76DDBB69D4E00002C570000002270B5B9
:101DC00001210446104600F087FA002000F066FA70
:101DD0000F4801F05BFB0F4B984215D103F0F9F966
:101DE000E6680D49304602F017FE00280BDB01259E
:101DF0003564E468084904F11C0002F00DFE002877
:101E000001DBE564002070BD6FF00400FBE700BF5C
:101E1000511E00000000AD0B3C57000001460C2392
:101E200009484B4370B5C418D4E90E56002240331C
:101E3000A263184403F01FF82DB132462B46034825
:101E4000BDE87040184770BDC00100204C00002064
:101E500010B1012804D07047034B1B6C5B0701D104
:101E6000FFF7DCBF704700BFC001002008B54FF08E
:101E70002003EFF3118183F31188BFF36F8F124AB0
:101E8000136843F0020013F0010310600CD04FF010
:101E90008042D2F80C34D2F80C2413F0010303D0A2
:101EA0000A4802F0E8FF012381F31188BFF36F8F26
:101EB00023B1BDE808400020FFF7B0BFBDE80840EF
:101EC000012001F0F3BA00BF100200200002002040
:101ED00010B5074C23782BB94FF4A57003F0FBFA2B
:101EE00001232370BDE81040002001F0DFBA00BFDD
:101EF00070030020094BBFF35B8F53E8002F22F0E3
:101F0000020143E800100028F7D1BFF35B8FD3072D
:101F100002D4012001F016BB704700BF1002002060
:101F20001FB500220123CDE90223094ACDF800D0D4
:101F30006B46CDF804D002F0D4FF002805DB4FF447
:101F400080420023684602F09FFA05B05DF804FB6A
:101F5000AF4E00002DE9F8433A49BFF35B8F0646C8
:101F6000012251E8003F41E800200028F9D1BFF3E9
:101F70005B8F33B9344935484B60CB608A6002F0DF
:101F80005EFD731E012B32D8012E07D14FF0804326
:101F9000D3F81C3403F00303012B28D003F095FA87
:101FA000044618B92A4B1B78002B44D14FF020036C
:101FB000EFF3118583F31188BFF36F8F0124254F51
:101FC000DFF89480DFF894904FF08042D2F8183414
:101FD000D2F81824D2030CD503F00303012B01D04F
:101FE000012E06D10CB385F31188BFF36F8FBDE8C6
:101FF000F883ACB1284600F047FA4FF08042D2F89F
:102000001835002BE0D139680029DDD03B603B68F2
:102010000123C2F81835C8F88031C9F80030D3E779
:102020000021212002F0EAF9E7E74FF08043022285
:10203000C3F80423DBE74FF080430222C3F80823F0
:102040000546BCE714020020B0010020DC0100209E
:10205000830700200401004000E100E00800004088
:10206000821C084B22F07F42C3F84025D3F8042598
:10207000904200D17047D3F80405821C22F07F42C1
:10208000F2E700BF00100140074B00221A601B68F6
:10209000064A074BD3F840051368C01A20F07F406A
:1020A0000344136002F096BB401101401802002067
:1020B0000010014038B5104D104B0024C5F80845FC
:1020C0001C601B680E4B4FF40032C3F880214FF4A4
:1020D0008033C5F8043322460121112000F0FCF8BA
:1020E000112000F0DBF8074A0123136002202B6067
:1020F000FFF730FF204638BD00100140401101407D
:1021000000E100E008100140F8B52D4BB0F1FF3FB1
:1021100008BF18460138002840DD9842A8BF18467D
:10212000284C294AD4F804351268284E9B1A13F417
:10213000000F23F07F4518BF0020013528444FF4DD
:1021400080311F4DC4F80813A84294BF15185519C3
:10215000D4F80425D4F8403500279B1A376023F0C3
:102160007F433068012B22F07F40C4F84005C4F85B
:10217000441304D10F2003F0AEF937603368144BD9
:102180004FF40032C3F88021D4F804052B1A23F051
:102190007F43012B04D1FFF763FF0BE00020BFE773
:1021A00025F07F43C4F84035D4F804052D1A023DCC
:1021B0002B02F0D44FF48033C4F80433F8BD00BFD1
:1021C000FFFF7F0000100140180200204011014075
:1021D00000E100E04FF02002EFF3118382F3118859
:1021E000BFF36F8F064AD2F80405064A1268801AB8
:1021F00020F07F4083F31188BFF36F8F704700BFDB
:10220000001001401802002010B5114C114AA261C3
:102210000323C4E90433104BE36122664FF4806367
:102220000E4A0F492362626600231022E01DA3625A
:102230006362E3622367E3666367A26602F086FE79
:102240000849204602F082FE2023A37110BD00BF82
:102250001C02002078580000810300207103002038
:102260008158000085580000094A0A4993680968A6
:10227000D967094998674B6843F080534B60002346
:1022800083F31188BFF36F8F9368D86F704700BFD7
:102290002C030020F457000000ED00E043B2002BB7
:1022A00008DB012200F01F0002FA00F05B09024A7D
:1022B00042F82300704700BF00E100E0054B4209EF
:1022C00000F01F0053F82220012303FA00F0104011
:1022D000704700BF00E100E043B2002BA8BF03F14C
:1022E000604301F10101B8BF064B4FEA4111ACBF99
:1022F00003F5614300F00F00C9B2B4BF195483F86D
:102300000013704714ED00E042F8203C009B42F8B7
:102310001C3C0A49019B42F8183C029B42F8143CC1
:1023200021F001014FF0807342F8043C42F8081C90
:102330000023203A82658367704700BFD14A0000BE
:102340000B4A0346906890B113F1160F806E05D0CA
:10235000A0F120029A4206D8834204D281422CBFC7
:102360000021012100E00021002908BF0020704762
:102370002C03002008B504460E46154600F0F0F97F
:10238000084B20469C6000F007FA284686F309882F
:10239000002163B681F31188BFF36F8F0022002301
:1023A00002F096FB2C0300200E4A08B50E4B22F0DB
:1023B0007F029A60BFF34F8FBFF36F8FD3F88820EF
:1023C00022F47002C3F88820EFF3148323F004038F
:1023D00083F3148801F022FC01F02AFC00F092F94A
:1023E00001F064FC0000000000ED00E012498A6882
:1023F0004FF038001044EFF3098C80E8F01F2020E4
:1024000080F31188BFF36F8F0C4F4FF000668A6A1C
:102410008A603E60906F0023936780F3118804B553
:10242000104600F0B9F9BDE8044002F1380090E828
:10243000F01F8CF3098870472C03002004ED00E0A6
:102440001EF0040F0CBFEFF30880EFF309808169E1
:1024500011F8021C0229FFD001B502F06CFD01BD8C
:10246000014910220A60704710ED00E072B640404A
:1024700080F31188BFF36F8FBFF34F8F30BF62B609
:10248000BFF36F8F704700BF72B6494081F3118868
:1024900020BF80F3118862B6704700BF30BFFFF7DE
:1024A000FDBF00BF01B572B60B4A506A00281EBFBF
:1024B0000021516202F05BFF62B6EFF30580A0F1EC
:1024C00010004FEAC0000549014409C99847BDE81A
:1024D00001400349084700002C030020D0550000AC
:1024E0002925000002F0A2FD202080F31188084871
:1024F0004FF40261401880F30988EFF31480022141
:10250000084380F31488BFF36F8FFFF74DFF00007F
:10251000200D0020EFF30880EFF3098101B572462A
:1025200000F072F801BD00BF044B9968986A8842B8
:1025300003D003494FF080520A6070472C030020FB
:1025400004ED00E038B5174B14469A6A9A6A9A6A05
:102550000546900716D5586B9A6A120604D519B12C
:102560009A6A22F080029A629A6A9A6A9A6AD206F3
:102570000BD400200B4A936A43F0FF0393620023BD
:10258000237038BD6FF01500EEE75B681B05F0D5D2
:102590002946FFF7D5FE0028EBD080F309880220FA
:1025A000E8E700BF00ED00E00D4B9A6A9A6A9A6A6C
:1025B000920508D59A6B9A6A120404D518B19A6AE2
:1025C00022F400429A62064B9A6A9A6AD20558BF70
:1025D0009A6A9A6A002042F47F429A6208707047B1
:1025E00000ED00E0074B9A6A9A6A9A6A9A6A9A6AB8
:1025F0009A6A9A6A6FEA02426FEA12429A6200206D
:10260000704700BF00ED00E070B5374B5B688AB0E3
:102610000E46C3F30803002585F31188BFF36F8FBF
:1026200002F07F41B1F17F4F11D102F00C01082976
:102630000DD0110701D4064601250022033B8DF879
:102640000720032B48D8DFE803F0043F433C2E4625
:10265000F3E7254BDA6A92073ED4DC6A14F0804433
:1026600009D028331B78F3B10DF107020121304660
:10267000FFF768FF04469DF8073093B920223146E2
:1026800002A802F080FC099B45B3C3F3080222B9FB
:102690006FEA53236FEA4323099302A9204602F00D
:1026A00048FC0AB070BD114B1B782BB10DF107012E
:1026B0000120FFF779FFDDE70D4B188884B2002C6D
:1026C000D9D0FFF78FFFD5E70DF107020021CEE744
:1026D0000DF107010020ECE70024CCE723F4FF73A1
:1026E00023F00103D8E700BF00ED00E029ED00E092
:1026F0002AED00E0024A536943F01003536170472A
:1027000000ED00E0044800232021C2180133272BEC
:1027100082F80013F9D1704700E100E008B50E4BD4
:102720009B68834207D1EFF3058393B10B4A53684B
:1027300043F08053536001F003FD4FF02003EFF3AB
:10274000118083F31188BFF36F8FBDE8084002F05A
:1027500010BE01F053FF00BF2C03002000ED00E08D
:102760001FB5084B0193084B0293084B039301AB31
:102770000093074A074B0121684600F0A7F805B00F
:102780005DF804FB000000200000000000000B06C4
:1027900000000020000001201FB5836E203B019344
:1027A000064B2022CDE90223012101AB68460093AC
:1027B00000F096F805B05DF804FB00BF00000B15B3
:1027C000DFF884C0F0B50646002710468F4200DBD4
:1027D000F0BD56F827E0DEF8044094B343B1651E1F
:1027E0002C4219D11F2C17D9DEF80020154213D125
:1027F000202CC2B2DEF80050DEF808000FD9B4F188
:10280000004F0ED8013CB4FA84F4C4F11F046400F4
:10281000072A44EA000406D96FF01500D8E7082417
:10282000F6E73E24F4E725F01F05154345F01005B3
:1028300044F00104CCF80820501CCCF80C50CCF823
:1028400010400137C2E700BF90ED00E0034B0522C6
:102850005A60BFF34F8FBFF36F8F704790ED00E06A
:10286000BFF35F8F014B00225A60704790ED00E08C
:1028700013490868082810B51ED8FFF7F1FF114C5E
:1028800049680022904201F10C0105D10E4B1870ED
:10289000FFF7DCFF002010BDA26051F80C3C23F0D4
:1028A0001F03134343F01003E36051F8043C43F06B
:1028B000010323610132E5E74FF0FF30EBE700BF92
:1028C0004857000090ED00E08107002010B5034C50
:1028D00001232278FFF774FF207010BD81070020CC
:1028E00008B5084A00231278FFF76AFF10F1160FA7
:1028F00003D0054B0022072800DD08BD98601A614F
:102900000130F8E78107002090ED00E0014B1860EE
:10291000704700BF040000200239012902D8034B90
:102920001B6818474FF0FF30704700BF04000020BD
:102930000FB407B504AB022153F8042B04480193EC
:10294000FEF71CFD03B05DF804EB04B0704700BF58
:10295000295000004FF02003EFF3118283F3118818
:10296000BFF36F8F06490123C1F840354FF0804116
:10297000C1F8783582F31188BFF36F8F002070475C
:1029800000E001404FF08043C0B2C3F81C05BFF324
:102990004F8F0549054BCA6802F4E0621343CB60D0
:1029A000BFF34F8F00BFFDE700ED00E00400FA0524
:1029B00020B1034B800143F001031847704700BF6B
:1029C0001057000008B5094B1A786AB9012119702F
:1029D00006200521FFF780FC0620FFF75FFC044B73
:1029E0004FF00042C3F80423002008BD82070020F6
:1029F000006000402A4B70B546682A481340834265
:102A00003ED00DD8062B15D005D89BB1022B39D05E
:102A10006FF0150033E0B3F5801FF9D1012309E011
:102A20002148834230D0B3F5A00F2FD0B3F5800FEB
:102A3000EED10223D00654BFC2F34015032582F421
:102A4000807412F4007FC2F34020C4F3002407D046
:102A500012F4006F76681BD001228A40C6F8082560
:102A600040EA440201F01F0142EA032301F5E0714C
:102A70004FF0A04243EA850342F82130002070BDA8
:102A80000723D7E70423D5E70523D3E70323D1E7BB
:102A9000520542BF01228A40C6F80C25E0E700BF7C
:102AA0000600F0000600100002004000F8B50C46D9
:102AB0004168C668087A04F01F05B2F5A03F45EAF0
:102AC00040150CD105F01F0101F5E0714FF0A04059
:102AD00050F82110CF0707D56FF02200BDE0B2F506
:102AE000005FF16800F0AA80F0680121A140014375
:102AF0007069F1600121A140B2F5A03FB2690CBF3D
:102B000008438843B3F5C02F0CBF0A438A43B26120
:102B100032697061B3F5802F0CBF114322EA0101C5
:102B2000544A3161D2F804130023C9B203F5A270EC
:102B300052F82000C0F30420854240F0848021FA3E
:102B400003F0C0077FD5012199404B48BFF35B8F4D
:102B5000CF4350E800CF0CEA070C40E800CEBEF1AE
:102B6000000FF6D1BFF35B8F9B0003F1804303F5A9
:102B7000C043D3F8100520F00100C3F81005C2F8D7
:102B800008130021284602F053FAF368E34013F0DB
:102B9000010351D07369E34013F001025ED0B369C1
:102BA000E340DB075FBF316921FA04F404F001045C
:102BB000C4F10204304954BFE4B2032400220127C7
:102BC00007FA02F6BFF35B8F51E8000F40EA0603F5
:102BD00041E8003CBCF1000FF6D1BFF35B8FD04061
:102BE00010F0010334D1910001F1804101F5C041A1
:102BF0004032D1F8100520F4473020F440709200A4
:102C0000C1F810052D0292B2D1F8100505F4F8555F
:102C100002F1804202F5C04245EA04450543C1F88D
:102C2000105513601268D1F8102542F00102C1F866
:102C30001025104AC2F8046318460EE00120A04097
:102C400021EA000154E70133082B7FF46FAF98E7C6
:102C50000132082AB4D16FF01200F8BD3169E140A9
:102C600001F00101C1F103012846C9B202F0E0F907
:102C70001046F2E700600040E00200202DE9F0413C
:102C80003F4D2E68002E4ED03E4BD3E90510DA683A
:102C90001B69014322EA01024FF0A0410127D1F84C
:102CA00010455C4022EA04044FF0000872BB2A6021
:102CB0002B683548002301251F46D0F8042305FA68
:102CC00003F1114211D09A0002F1804202F5C24292
:102CD000116851B103F5A27150F821101760C1F3CA
:102CE000042105FA01F112680C430133082BE4D1E9
:102CF000DCB94EB1234CD4E90510E268014322EA65
:102D000001020125002642BBBDE8F0813A4206D00F
:102D1000002108F01F0002F08BF922EA070208F1F7
:102D200001087F00C2E73446C3E7164B5968002903
:102D3000DFD00D68154F002D38BF00258A6822406E
:102D400002D04B6838469847002DD2D02B68002B14
:102D500038BF002329461D46F0E715420CD02169F3
:102D6000F14001F00101C1F10301C9B206F01F00F9
:102D700002F05EF922EA050201366D00C3E700BFEA
:102D80007C610040C4020020006000407C00002004
:102D900010B50446002201210320FFF79DFA606868
:102DA000E368064A00F1080100F05AFD044B98421E
:102DB00014BF6FF00F00002010BD00BFC52D000034
:102DC0000000AD0B0378012B08D0022B08D04BB9C3
:102DD000054B0B6201F1100001F036BB034BF8E725
:102DE000034BF6E7034BF4E70000AD0B0100AE0B1D
:102DF0000200AE0B0100AD0B2DE9F04F044687B089
:102E00000D4617469946C0684FF0FF324FF0FF332A
:102E100001F03AFBE06810300022002301F034FB9F
:102E20006068DFF8B8A000F063FD4FF00008B84517
:102E300001D3002529E095F808B01BF0080644D11D
:102E40001422314601A802F0C9F86A6802920BF018
:102E500001032A688DF804301BF0020F8DF80590ED
:102E600004921CD17A1E424502D92A7D520718D5F8
:102E70005BBB2022606801A900F064FD504512D0C0
:102E8000154B984224D06FF00405606800F040FDB7
:102E9000E06801F0D9FA284607B0BDE8F08F324665
:102EA000E8E74022E6E7E06810304FF48042002374
:102EB00001F0EAFA0028E6D1E3681B6A534505F100
:102EC0000C05E0D108F10108B1E76FF02205DCE75D
:102ED0006FF00F05D9E700BF0B00AD0B0000AD0B85
:102EE00070B54B79012B23D18B79032B20D1CA7973
:102EF00022B1012A1CD143681B79CBB10C7914B1E2
:102F0000022C15D10E240B684568B3F5164F2D68B9
:102F100062D02BD8B3F5165F61D014D8B3F5966F95
:102F20005FD008D8B3F5967F5ED0B3F5167F5ED03C
:102F30006FF022004FE0B3F5166F5BD0B3F5965FEC
:102F4000F6D1374B3CE0B3F5E14F56D007D8B3F597
:102F5000615F54D0B3F5964FEAD1324B30E047F67B
:102F60001226B342E4D14FF4000329E0B3F5613FE8
:102F700047D013D8B3F5963F46D009D84DF6C026B2
:102F8000B34243D0B3F5614FD2D14FF46B0317E096
:102F9000B3F5E13FCCD14FF0EB7311E0B3F5612F06
:102FA00037D008D8204EB34236D0B3F5E12FBFD189
:102FB0004FF0E86304E01D4EB342B9D14FF08053A7
:102FC000C5F82435C36803C922430433C5F86C250A
:102FD00083E80300002070BD4FF41D03F0E7144B9D
:102FE000EEE74FF49E23EBE74FF4A033E8E74FF40E
:102FF0001C33E5E74FF41D23E2E70E4BE0E70E4BF1
:10300000DEE74FF06C73DBE70C4BD9E74FF4650359
:10301000D6E74FF07063D3E74FF08063D0E700BF8F
:1030200000B0130000A04E0090D0030040420F00FB
:103030000050270000C0750000F03A0000903A01EF
:103040002DE9F041C7680646884602F03EFAB8B955
:10305000284B1B7883F001037268156893B14FF019
:103060002003EFF3118483F31188BFF36F8F304691
:1030700002F086F838BB84F31188BFF36F8FEEE758
:103080000123E9E76424304602F07AF870B90120A0
:1030900002F09DF8013CF6D10021212001F0AEF9AB
:1030A000F0E784F31188BFF36F8FF5E74FF020034B
:1030B000EFF3118483F31188BFF36F8F304602F072
:1030C0005FF80028EDD007F80C8F01230022C5F827
:1030D0004475C5F84835C5F82021D5F82011C5F844
:1030E0005821D5F85821AB6084F31188BFF36F8F56
:1030F000BDE8F08183070020F8B5002205460121D4
:103100000220FFF7E9F80220FFF7C8F86B68EE68C5
:103110001C684FF0A04300224021C4F8002506207F
:103120003560C3F808150321C3F81817C3F8202722
:10313000C4F80C050820C4F81405C3F81C27202285
:10314000C3F80825C3F81417E9680523C4F808353F
:103150000723C4F8103504312846FFF7C1FE07469F
:1031600000283CD16B689B79CBB106F10E0000F0D2
:1031700063FA1D4B984234D1B07BC30003F1804306
:1031800003F5F83304F10C0204F59071C3F810153F
:10319000C3F81425154A01238340C2F804350823D7
:1031A000C4F800350023C4F81031D4F8103106F10A
:1031B0000D03C4F834350123C4F8383523606B6837
:1031C0009B791BB94FF48073C4F8043300230C3689
:1031D000C4F84465C4F848350123A360E360384669
:1031E000F8BD6FF00407FAE70000AD0B00F00140F6
:1031F000044B1868421C04BF034B1878831F5842C5
:103200005841704730010010E00F00F0074B1B7869
:10321000062B09D1064B1B68C3F30313033B032B97
:1032200002D8044AD05C704700207047E00F00F0DD
:10323000E80F00F0AA580000024AD2F80034002B30
:10324000FBD0704700E0014010B5FFF7D1FF28B177
:10325000774B784A1B68C3F304231360FFF7D6FF4C
:1032600010B1754B754A1A60FFF7C2FF28B1744B55
:10327000744A1B68C3F342331360FFF7C7FF20B1E2
:10328000714AD36823F08073D360FFF7B1FF40B178
:103290004FF080430022C3F80C21C3F81021C3F87B
:1032A0003825FFF7B3FF10B1684B03221A60FFF710
:1032B000ADFF40B1664B05221A6001229A670022D9
:1032C0009A603F225A60634B1A68511C0BBF624BD5
:1032D000624B1A781B6802BF08331B68C3F30313E1
:1032E000062A4DD1033B032B03D85D4AD35C002B48
:1032F00046D04FF080525B4BD2F80414C3F820152F
:10330000D2F80814C3F82415D2F80C14C3F8281501
:10331000D2F81014C3F82C15D2F81414C3F83015D1
:10332000D2F81814C3F83415D2F81C14C3F8401599
:10333000D2F82014C3F84415D2F82414C3F8481561
:10334000D2F82814C3F84C15D2F82C14C3F8501531
:10335000D2F83014C3F85415D2F83414C3F86015F9
:10336000D2F83814C3F86415D2F83C14C3F86815C1
:10337000D2F84014C3F86C15D2F84424C3F8702571
:10338000FFF736FF28B1384B384A1B6803F04F036C
:103390001360FFF72DFF48B14FF08043D3F80024AE
:1033A000D20744BF6FF00102C3F80024294B1B6809
:1033B000062B0CD1294B1B68033B032B02D82C4A4C
:1033C000D35C23B12B4A136843F4806313604FF03E
:1033D0001023D3F80022002A03DBD3F80432002B99
:1033E00022DA25490123C1F80435FFF725FF4FF004
:1033F00010201524C0F80042FFF71EFFC0F8044259
:10340000FFF71AFF0023C1F80435FFF715FFBFF3DC
:103410004F8F1A491A4BCA6802F4E0621343CB601B
:10342000BFF34F8F00BFFDE7164B174A1A6010BD60
:10343000240300104035014074C007400DF0ADBAC0
:10344000440200103C050040F0ED00E0A005004003
:103450001056004030010010E00F00F03401001061
:10346000A258000000C0004058020010E40E0040C6
:10347000A65800003C17004000E0014000ED00E0CD
:103480000400FA05400000200090D003044B1A7994
:1034900022B9012218609A8002487047024870479A
:1034A000E40200200000AD0B0C00AD0B30B510B1F4
:1034B000012833D030BD4FF08043D3F81824D3F81F
:1034C000181411F4803F194624D002F00302012A97
:1034D00020D1C3F81825164B00221A601B684FF044
:1034E00080430222C3F80423124AD06840F080735C
:1034F000D360114B1C6844F0010119605D68596884
:10350000491BB1F50A5FFAD31C600C4BD060012255
:103510001A60CFE70023C1F81835DCE7084B00221A
:103520001A601B684FF08043C3F804031860C1E7BA
:1035300004010040F0ED00E0001000E00800004051
:103540000001004038B510B1012818D038BD4FF047
:1035500080430222C3F80823184A10601268184AF0
:103560000121116042F210751C46D4F81834DB03B7
:10357000ECD5012001F02BFE013DF6D1E6E7114B21
:103580004FF080440022C4F808031A601B680E4BF9
:1035900042F210751860D4F80C34D4F80C24D2031D
:1035A00003F0010305D523B1012001F010FE013D18
:1035B000F1D1064B00225A71C8E700BF0401004058
:1035C0000C0000400001004004000040E402002024
:1035D000164B1A6810B56AB100221A601B684FF0CA
:1035E00080430122C3F80823114B587910B95A714E
:1035F0001B6898470F4B1A6872B100221A601B684B
:103600004FF08043D3F81824D3F81814920704D14C
:103610000122C3F818259A6010BD0222C3F80823BE
:10362000034BBDE810401B68012018470001004013
:10363000E4020020040100402DE9F041144A154E37
:10364000154F0546154800244FF0010E5FFA84FC23
:103650004FF02003EFF3118883F31188BFF36F8FCE
:103660000EFA0CF3134207D031680B4201BF194325
:10367000316085F800C0384688F31188BFF36F8F3A
:10368000B84203D09A4304F10104DFD1BDE8F081D0
:10369000FFFF0F00EC0200200000AD0B0200AD0B9D
:1036A00037B5344B01930023C0F80431D0F804211E
:1036B000C0F82431D0F82421C0F81C31D0F81C21E6
:1036C000C0F80831D0F808214B6381F82F308B6A9D
:1036D000012B04460D4617D10B6A5B0614D4022356
:1036E000C4F800320123236295F82D20022A18BF66
:1036F00023602B6893B140F28623AB60AB681E4811
:10370000C4F8043303B030BD0123E9E7294620465D
:1037100001F086FD28B1019B013B0193019B002B29
:10372000F4DC95F82F305BB91348019B002BE9DCE2
:103730000023C4F8003505231048C4F80035E1E73C
:10374000D4F8C434C4F8C4348BB10D4A0B4813F018
:10375000010F18BF104613F0020F02F1010218BF4B
:10376000104613F0040F074B18BF1846DDE7034857
:10377000DBE700BFA08601000000AD0B0100AD0B30
:103780000000AE0B0200AE0B37B5304B01930023A7
:10379000C0F80431D0F80421C0F82431D0F8242135
:1037A000C0F81C31D0F81C21C0F80831D0F808212D
:1037B000C0F800324B6381F82F300123036291F887
:1037C0002D200D469A4218BF8360044601F00BFD80
:1037D0002B6883B140F28623AB60AB681C48C4F809
:1037E000043303B030BD2946204601F019FD28B14D
:1037F000019B013B0193019B002BF4DC95F82F30DA
:103800005BB91348019B002BEBDC0023C4F80035A7
:1038100005231048C4F80035E3E7D4F8C434C4F8ED
:10382000C4348BB10C4A0B4813F0010F18BF10467B
:1038300013F0020F02F1010218BF104613F0040F3B
:10384000064B18BF1846DDE70248DBE7A0860100FB
:103850000000AD0B0100AD0B0000AE0B0200AE0B83
:10386000F8B507791F4D4FF03C0C0CFB07FC05EB3E
:103870000C0494F82E609EBBA66084F82D6084F83A
:10388000306084F831600E6863604B7B84F83830B8
:1038900006F01F0345F80C2003F5E0734FF0A04C31
:1038A00040F20C6E4CF823E04C68006804F01F03F3
:1038B00003F5E0734CF823E08B68C0F80865C0F8A6
:1038C0000C45C0F824351AB140F30730FEF7E6FC8A
:1038D0003C2303FB07550448012385F82E30F8BD2F
:1038E0000248FCE7F00200200000AD0B0500AD0B24
:1038F000026803790521C2F80015044A3C2101FB46
:103900000323022283F82E20704700BFF00200201C
:1039100003680A490279C3F80813D3F8001221F0AA
:103920000301C3F800120021C3F80015044B3C2129
:1039300001FB0233012283F82E20704786420400E7
:10394000F00200202DE9F047324E90F80480D0F8C4
:1039500000903C2303FB08630C4693F82D30012BA9
:10396000174604D10B78012B06D12B4811E0022B0E
:1039700002D10B78012BF8D13C25284BC9F808332C
:1039800005FB086595F830302BB1AB682448C9F8C1
:103990000433BDE8F08787F00403C3F3800385F8A0
:1039A00030302F62A646BEE80F0005F10C0CACE8E3
:1039B0000F00DEF80030CCF800306368AB62E368DB
:1039C0006B626378C9F888352378C8EB081A012B35
:1039D00006EB8A0A19D0B3B9C7F340173C2303FB9F
:1039E0000863514683F82C704846FFF7CDFE3C2310
:1039F00003FB08F806EB080256F80830002BC8D184
:103A000082F83030C5E70127E8E751464846FFF71E
:103A100047FEECE7F00200200500AD0B86420400F3
:103A20000B00AD0BF0B5294C294887B0214601F0B9
:103A3000F7FBA446D8B994F82F60276AE6B9237B30
:103A40009A1E012A18D8616AA269914214D1E269CA
:103A50006262C7F3401762691D48A262032B84F8B3
:103A60002C7084F82D60214603D1FFF78DFE07B03E
:103A7000F0BDFFF715FEFAE7164D0FCD01AC0FC4F0
:103A80002B682360F6B1124AD2F8C434C2F8C434A9
:103A900098070ED501238DF8003000238CF83030C4
:103AA0007B0701D5002EE2D0DCE90031684698475B
:103AB000DDE7590701D50223EDE7DA074CBF032301
:103AC0000423E8E78DF80060E7E700BFF00200207C
:103AD00000300040FC020020F8B5104B104F53F8A6
:103AE0002050013053F82060AE4200D8F8BDD5E92F
:103AF00000342046984770B16CB1E41B2411610971
:103B0000084A04F01F0452F82100012303FA04F4C8
:103B1000044342F821400835E6E700BFE0570000C3
:103B20004C0000209C000020084BC01A0011084BDC
:103B3000420900F01F0053F82220012303FA00F08D
:103B400010420CBF18460020704700BF4C000020F8
:103B50009C000020114970B5114C05460E468C4260
:103B600004D10F4CB4420AD1002414E02046FFF7E0
:103B7000DBFF10B12368AB420DD01034EFE72046D5
:103B8000FFF7D2FF08B91034ECE72168284601F0AE
:103B9000EEF90028F7D1204670BD00BF9C00002040
:103BA0004C000020F8B51C4E054600274FF02002BF
:103BB000EFF3118382F31188BFF36F8F286988B107
:103BC0002F6183F31188BFF36F8F00F0B9FA4FF0C4
:103BD0002003EFF3118083F31188BFF36F8F01F09F
:103BE000C8FBE3E783F31188BFF36F8F4FF0200228
:103BF000EFF3118382F31188BFF36F8F01F085FC1F
:103C0000012102280446D8BF084601F08EFC7462E8
:103C1000FEF72CFCCAE700BF2C0300200248034A31
:103C20000021121A01F0DAB9A00000208407002058
:103C300008B50648064A0749121A01F0A4F9BDE87A
:103C40000840054A0549064801F09DB900000020DA
:103C5000A0000020FC58000000000000FC580000FC
:103C60000000002008B50C4B012202201A70FFF75B
:103C700033FF0A4A0A490B4800F072FE0320FFF79F
:103C80002BFF00F05DFCFDF7B5F8074A137B23F02E
:103C90000103137308BD00BF83070020F358000021
:103CA000AE580000CD580000200100202DE98048CA
:103CB000DFF8F490A7B089F30888334D334E6B6971
:103CC000DFF8E8A0324F43F4007300246B61E02377
:103CD00085F82230EC772C766C76AC766B6A43F400
:103CE000E0236B62FEF706FDFEF7BAFB4FF0FF33F1
:103CF000AB62EB62274D40F20113ADF8243006AB06
:103D0000AB602046CDE92044FFF7E6FE0120FFF737
:103D1000E3FE4FF0010B00F017FB1F4BAE621F4993
:103D200005934FF480625346CDE9034BCDE901443E
:103D30000094304600F0D2FB737B804623F00403EE
:103D40003046737301F041FB0F23CDE90243144960
:103D5000144B4FF4A072CDE904B4CDE900543846B9
:103D600000F0BCFB7B7BEF6023F004037B7305F169
:103D70001C03C5E907332C76C5F80490524641462A
:103D80003046FEF7F7FA00BF00ED00E0200100200A
:103D9000A00000202C030020F4580000A007002001
:103DA000C00B0020A53B000040150020653C000032
:103DB00010B5084C23685BB1FEF70CFA0346206887
:103DC000054A0344BDE810405361002101F0ADBB3A
:103DD00010BD00BF680300202C030020F8B5054685
:103DE0000C464FF02003EFF3118683F31188BFF3E5
:103DF0006F8F0D4B00224FF4004740F2E730002157
:103E00005A61E7FB05014FF47A720023FCF786FD47
:103E1000064B1860064B1C60FFF7CAFF86F311883B
:103E2000BFF36F8FF8BD00BF2C0300206803002094
:103E30006403002049B9EFF3058030B9054B9A6A55
:103E40009B689A4201D0FEF70FBA81F31188BFF345
:103E50006F8F70472C0300204FF02003EFF3118188
:103E600083F31188BFF36F8F044B9A68D37B013BB8
:103E7000D37381F31188BFF36F8F70472C03002039
:103E8000094B03F12C02824205D19B688B4202D17F
:103E90004B7BDB0606D1D1E9003213605A60002368
:103EA000C1E90033704700BF2C03002038B5124C25
:103EB0002369A26801460BB1E5680CE004F12C000F
:103EC00001F079FA537B0546980644BF43F0080396
:103ED0005373002DF0D049B9537BDB0606D1AB6993
:103EE00023B9D3897F2B01D9A26238BD954201D075
:103EF000FFF75EFFA562F8E72C03002010B54FF036
:103F00002003EFF3118483F31188BFF36F8F084B05
:103F10009A68D37B0133D3730020FFF7C7FF84F384
:103F20001188BFF36F8FBDE8104001F02EBA00BFBB
:103F30002C03002070B490F90D20437B002A2CDB69
:103F4000DB062AD1836943BB154A114651F82C4F31
:103F50008C4218BF2346002B146B38BF0023B3B12B
:103F600090F90E6093F90E50AE4203DBA3420ED0DF
:103F70001B68F4E75A68C0E9003210605860437B60
:103F800063F07F03437370BC0020FFF78FBFC0E96D
:103F90000014136B18601063F1E770BC704700BF2A
:103FA0002C03002010B54FF02002EFF3118482F3B0
:103FB0001188BFF36F8F427B510704D484F31188BB
:103FC000BFF36F8F10BD22F004024273FFF7B2FF00
:103FD00021460248BDE81040FFF72CBF84070020AF
:103FE00070B590F90D30002B014602DA1748FFF743
:103FF00047FF174A1046146B50F82C3F834208BF06
:104000000023002B38BF0023D3B191F90E6093F940
:104010000E50AE4203DBA34212D01B68F4E758688F
:10402000C1E90030016059604B7B906863F07F0309
:104030004B73431A5842BDE870405841FFF736BFF2
:10404000C1E90004136B19601163EDE75803002008
:104050002C03002070B501464FF02003EFF31184CC
:1040600083F31188BFF36F8F164B174A9868156852
:10407000A8421D4606D1FFF79BFE84F31188BFF3CB
:104080006F8F70BD00261660104A1268BAB1C289DF
:104090007F2A14D8427BD20611D10D4A90F90E60C6
:1040A000126896420BDB0B4A904208D05A698A424A
:1040B00002DCFFF795FFDEE7521A5A61DDE70023C5
:1040C0006B61DAE72C030020600300206803002006
:1040D00064030020A000002070B50446183001F0F1
:1040E000FEF94FF02003EFF3118683F31188BFF33D
:1040F0006F8F94F90D30002B07DA0F482146FFF738
:10410000BFFE637B03F07F0363730C4D637BA86882
:1041100043F010036373031B58425841FFF7C6FE78
:1041200086F31188BFF36F8FAB68A34203D1BDE85C
:10413000704001F02AB970BD580300202C03002004
:104140002DE9F04104464FF02003EFF3118283F391
:104150001188BFF36F8F437B13F0280F05D082F3D4
:104160001188BFF36F8FBDE8F08143F020034373E4
:1041700082F31188BFF36F8F183001F0B0F94FF060
:104180002003EFF3118683F31188BFF36F8F637BF6
:10419000D80616D1A269A2B9190607D52648214624
:1041A000FFF76EFE637B03F07F036373234B986816
:1041B000021B50425041FFF779FE04F130080027FE
:1041C0001DE09B07F9D5A0682146FFF759FE637BE8
:1041D00023F0020363730023A360EEE705F11800E8
:1041E00001F07DF9A8682946FFF74AFE6B7BAF60B6
:1041F00023F002036B73EF672846FFF79BFE256BE6
:10420000454501D0002DE9D10C4B9A680C4B9A42E0
:1042100002D10120FFF74AFE637B43F0080363737A
:10422000236E86F31188BFF36F8F002B9BD020463F
:10423000BDE8F041184700BF580300202C030020C0
:10424000A000002008B590F90D30002B014606DAD9
:104250000748FFF715FE4B7B03F07F034B73054BBD
:104260009868431A58425841BDE80840FFF71EBEFF
:10427000580300202C0300202DE9F0410646144687
:104280001D464FF02003EFF3118783F31188BFF32E
:104290006F8F01F0CAF887F31188BFF36F8F6B1C23
:1042A00008BFB4F1FF3F08D022462B4606F11800A4
:1042B0000349BDE8F04100F005BABDE8F08100BF58
:1042C000EB53000010B5074B9868074B0C4618607D
:1042D0001146DDE90223FFF7CFFF2046BDE810407D
:1042E000FDF7C2BF2C03002060030020F8B505468F
:1042F00001F035F92C184FF02003EFF3118783F309
:104300001188BFF36F8F0D4E0D4BB0681860FFF72B
:1043100099FFB0680B492A46EB17183000F0D2F924
:10432000B268537B43F0100353733846FDF79CFF8C
:1043300001F015F9201A20EAE070F8BD2C030020E6
:1043400060030020EB530000044B002103F12C021A
:10435000C3E90B220846FFF741BD00BF2C03002034
:10436000F8B5244C244BA2689A4230D04FF0200379
:10437000EFF3118583F31188BFF36F8FA16804F108
:104380002C00FFF77DFDE36AA268216B834208BF22
:104390000023002B38BF00232BB392F90E7093F942
:1043A0000E60B74203DB8B421DD01B68F4E75968EF
:1043B000C2E900310A605A60537B63F07F03537394
:1043C0000120FFF773FD85F31188BFF36F8F4FF066
:1043D0002003EFF3118083F31188BFF36F8FBDE8E3
:1043E000F840FDF741BFC2E90001236B1A60226368
:1043F000E2E700BF2C030020A00000200B460133A1
:1044000008BFB0F1FF3F10B506D10B4B9868FFF71E
:1044100063FE4FF0FF3010BD044648B9FFF7A0FF20
:104420004FF47A7084FB0034D80B40EA4440F2E742
:10443000FFF75CFF0446F3E72C030020014B98686C
:10444000704700BF2C03002038B504464FF020030E
:10445000EFF3118583F31188BFF36F8F01F010F82C
:1044600048B10022C26700F0B0FF29460548BDE808
:104470003840FFF7DFBCD4E902329A4218BF01335B
:10448000A360F2E78407002037B514461D464FF0BD
:104490002003EFF3118183F31188BFF36F8F8368DB
:1044A00043B1013B836081F31188BFF36F8F00201C
:1044B00003B030BD54EA050306D181F31188BFF380
:1044C0006F8F6FF00F00F3E70246CDE90045024819
:1044D000FFF7F8FEECE700BF840700202DE9FF415D
:1044E00000F13005C0E90C550E9D05730425457398
:1044F0000F460D9D8573D61D00250C9AC57326F0B9
:1045000007062037C0E90655C0E91A76056706F1A7
:10451000200802920B9A019288440A9A009242461D
:104520000446FDF7F1FE054B9B68C4E9175503B13E
:104530005B6F6367404604B0BDE8F0812C03002048
:104540002DE9F0472A4E2B4D86B0B046B54205F115
:10455000300410D3FFF780FC264CDFF89CA04FF40A
:10456000004940F2E7360027444521D306B0BDE8B4
:10457000F047FFF7C3BC54F8043C059354F8103CD3
:10458000049354F8143C039354F8183C029354F8E1
:104590001C3C019354F8203C009354E90A2354E94D
:1045A0000C01FFF79BFF54F8303CDD652546CDE755
:1045B000636A5A1C0DD023EAE37330463946C9FBBF
:1045C0000301B94208BFB042256804D12846FFF76D
:1045D000E9FC3034C8E74FF47A720023FCF79EF907
:1045E00002460B4605F11800514600F06BF8F0E763
:1045F000A0000020A0000020EB53000008B54FF001
:104600002003EFF3118483F31188BFF36F8F044B02
:1046100098681861FFF760FD2046FDF725FE00BF92
:104620002C030020034B1B680BB9FDF7D3BD002002
:10463000704700BF6C03002030B5036868B10A4AB8
:104640005268904209D043B1D3E90421D0E904452E
:10465000121945EB0101C3E90421426813605A6055
:104660000023C0E9003330BD4400002038B5134BAF
:104670001C689C4208BF0024FFF7D4FF0546BCB16C
:10468000D4E90401401B61EBE571012871F10003DD
:1046900011DB6FF000420023824273EB010400DA69
:1046A0001046074B5B6913B19842A8BF184638BD46
:1046B0006FF00040F5E70020F3E700BF4400002062
:1046C0002C0300202DE9F74F019119464B1C08BF20
:1046D000B2F1FF3F82466CD0541C6FF0010341F1F0
:1046E00000054FF0FF3BB3EB04086BEB0509B8F195
:1046F000000F79F100030FDBFFF794FF334AD2E993
:10470000001C6FF001035B1A6BEB0C021E1B62EBCB
:104710000507341A67EBE075019BCAF808304FF0C3
:104720002003EFF3118683F31188BFF36F8FFFF738
:1047300079FF012C75F10003254BB8BF01241A68DD
:10474000B8BF0025241845EBE0759A42CAE9044534
:1047500001D05F6852B95A68CAF804205A68CAF88A
:104760000030C2F800A0C3F804A014E0D2E9048924
:10477000DAE90445444575EB09011DDAB8EB04009C
:1047800069EB0501C2E904015168CAE90021C1F8D9
:1047900000A0C2F804A01A689A4206D0924504D13B
:1047A000FFF764FF0021FDF7AFFC86F31188BFF32C
:1047B0006F8F03B0BDE8F08FB4EB080065EB090123
:1047C000BA42CAE90401C6D01268C3E7A0010020BA
:1047D000440000202DE9F74F0646FFF73BFC4FF061
:1047E0002003EFF3118483F31188BFF36F8F2C4DF7
:1047F000DFF8B0A0DFF8B0B02E605146D5F800C0A9
:10480000DBF800006246D3175845DAE90089CDE9A4
:1048100000230DD060B1D0E90467B445BB411EDA76
:10482000009BB6EB030C019B67EB0306C0E904C6D3
:10483000009B13EB0802019B4FF0000643EB0903BA
:10484000C1E900232E60FFF711FF3146FDF75CFC44
:1048500084F31188BFF36F8F03B0BDE8F08F18EBBE
:1048600006084FF000024FF0000349EBE679C0E97B
:104870000423ACEB0606CAE900892E60FFF7DCFED4
:1048800084F31188BFF36F8F836898474FF020033C
:10489000EFF3118483F31188BFF36F8F0149ADE704
:1048A0006C030020A00100204400002010B54FF050
:1048B0002003EFF3118483F31188BFF36F8FFDF7AB
:1048C00089FC064BD3E90023121843F1000384F35B
:1048D0001188BFF36F8F1046194610BDA00100204C
:1048E00038B5064C064DAC4201D3002038BDD4E9A2
:1048F0000112204600F037FE1434F4E7A000002037
:10490000A00000201FB5CDE9011202228DF80C2075
:10491000836801225C6801A96823A04704B010BD28
:10492000034658B1426802F00302012A03D0032A69
:1049300004D1026812B10020986070476FF0150032
:1049400070474268816002F00302032A4FF00002C0
:1049500003460CBF006810465A607047002070473D
:104960000FB407B504A951F8040B0191FCF79AFAAA
:1049700003B05DF804EB04B07047038B13F007033A
:1049800005D10368002B0CBF002003207047022BC9
:1049900005D1438B002B14BF002004207047012B4E
:1049A00005D10368002B0CBF0020052070470020B4
:1049B00070472DE9F0410D4607461946281D9046DF
:1049C0001E46FFF7BEFF044638B13346424629462D
:1049D0003846A446BDE8F0416047BDE8F08110B418
:1049E0004FF02004EFF3118284F31188BFF36F8F2F
:1049F000416110BC0121FCF763BA10B50C4640B10F
:104A000039B1081DFFF78CFF28B9A36833F0030301
:104A100001D06FF0150010BD38B50C46054658B1F1
:104A200051B10B6843B14B6833B11C22002100F037
:104A3000D5FA2C61002038BD6FF01500FBE770B58A
:104A400004460E46FFF7D9FF051E31DB4FF0200369
:104A5000EFF3118183F31188BFF36F8F638B208B8A
:104A60004FF6FF75AB4200F007022ED0022A0ED19E
:104A7000013363831546012381F31188BFF36F8FE0
:104A8000B3B1002331462046FFF793FF10E08307C0
:104A900001D0062A0ED100233360636893B9C4E9BC
:104AA0000066154662B90A4620460221FCF708FA5C
:104AB000284670BD052A0CBF6FF022056FF0040573
:104AC0000023D9E71E606660EBE76FF00A05F7E7A1
:104AD000044608B5084611461A46A047FFF7AEFC43
:104AE000FDF71CFE836800EBC101B3F5004F2CBF3E
:104AF00051F8220031F81200704700EBC1018068C4
:104B0000B0F5004F2CBF41F8223021F81230704729
:104B100008B50122FFF7E6FF400808BD8368B3F53A
:104B2000004F00EBC10108D34B681AB143F00103F9
:104B30004B60704723F00103FAE74B881AB143F04A
:104B400001034B80704723F00103FAE75300012271
:104B5000FFF7D3BF80680131B0F5004F2CBF0220B2
:104B60000120081AB0FA80F0C0F11F0070472DE94B
:104B7000F04104460D46FFF7CBFFA368B3F5004FA5
:104B8000014601D3012835D02046FFF7E3FF04EBAF
:104B9000800216699EB9012303FA00F0E36803431B
:104BA000E360294615612B4602222046FFF7A5FF48
:104BB000032229462046BDE8F041FFF79EBF0222AE
:104BC00031462046FFF78EFF02220346074629465C
:104BD0002046FFF792FF3346032229462046FFF77F
:104BE0008CFF032239462B462046FFF786FF022220
:104BF0003146DFE7BDE8F081B2F5802FF8B52CBF74
:104C000008250425551BCC1D0D4424F0070425F070
:104C10000705002200232D1B0460ED08C4E90023D2
:104C200000232946A560E3602046FFF793FF860036
:104C30001B36411CF60804F1100218468B4229DB92
:104C4000324620460021FFF781FFAF1B204601229C
:104C50000021FFF763FF3A463146FFF777FF3346FF
:104C6000314620460022FFF748FF29462046002211
:104C7000FFF76CFF3B46294620460022FFF73DFF29
:104C8000294620460122FFF749FF3146BDE8F8409A
:104C9000FFF76DBF42F8040B0133CFE770B5D0E9E1
:104CA0000065720806F0010342EAC5729B184FF0D6
:104CB00000014FEA550444EB0101C0E9003170BD29
:104CC0002DE9F043D0E900244FF0333101EB4103EB
:104CD000A2FB01891D4618EB0505A4FB014549EB24
:104CE000030618EB04024FF0000749EB0501921987
:104CF00047EB010163183A4645EB0202C0E9003276
:104D0000BDE8F0830B68002B70B504460FDD226808
:104D10004068013B0B600A21A2FB015601FB0066C3
:104D200026F07043C4E90053300F303070BD30209E
:104D3000FCE72DE9F74F9946D37814466F2BA3F182
:104D4000410206460F4601922DD028D8582B14BF99
:104D50000A251025DDF83080AA464FF0000B524698
:104D60005B4630463946FBF7D9FD092AD3B21FD836
:104D700030335F45DBB208BF564508F8013D01D32B
:104D8000C84512D823789B0605D5082D16D1A378DF
:104D900043F00803A370404603B0BDE8F08F03F072
:104DA000F703702BD3E70825D4E706460F46D6E76E
:104DB000019A192A94BF37335733DAE7102DEAD115
:104DC000A37843F01003E5E72DE9F0410746884654
:104DD00015461E461446B442A4EB050002D33EB964
:104DE00023782BB114F8010B4146B8470028F2DABA
:104DF000BDE8F0817047C268CBB20C2103FB0121F2
:104E0000086C00F0070070474FF02003EFF31182A9
:104E100083F31188BFF36F8F036813F0C00301D0D1
:104E20008B4207D101230360002082F31188BFF376
:104E30006F8F70474FF0FF30F7E710B54FF020034A
:104E4000EFF3118283F31188BFF36F8F036803F0D0
:104E50000704012C06D10160002082F31188BFF302
:104E60006F8F10BD03F0C0038B4214BF4FF0FF30B3
:104E70006FF04400F1E74FF02003EFF3118283F36A
:104E80001188BFF36F8F036803F0C00343F0020380
:104E9000036082F31188BFF36F8F7047C06810B44E
:104EA000CBB21C2403FB0400002110BC10471046A9
:104EB000FFF7CABA0020FEF745BB38B5CCB20C23C9
:104EC00005466343C068403380211844FFF79CFFC8
:104ED000002805DB696801EBC4046368984700207B
:104EE00038BD2DE9F843CDB20C27C4686F430646A0
:104EF00007F140008021204490469946FFF79DFF2E
:104F0000002807DB3C44C4E90E89736853F8353048
:104F100098470020BDE8F88370477047FDF774B9E3
:104F200008B5FFF7FBFF002008BD0021012000F0BD
:104F300000B800F001BA0146006800F0FDB908B5FC
:104F4000FDF7ACFABDE80840FDF7EEBA01390346BB
:104F500011F8012F0AB91A70704703F8012BF7E70F
:104F6000034600201A5C02B970470130FAE7431E7D
:104F7000013913F8012F11F8010F824201D1002AE3
:104F8000F7D1101A7047F0B581EA0004A50703466F
:104F90000BD0013B0A4491421BD1F0BD002AFCD04A
:104FA00011F8014B03F8014B013A9C07F6D122F0AE
:104FB00003041D1F96080F19B94205D16FF00305B0
:104FC00005FB06222344E4E751F804CB45F804CF5F
:104FD000F2E711F8014B03F8014FDCE770B5C9B2F5
:104FE00003469C0711D141EA012422F0030644EA5A
:104FF00004451E449408B3420DD16FF0030505FB30
:1050000004221A44934209D170BD002AFCD003F84F
:10501000011B013AE5E743F8045BECE703F8011BE9
:10502000F0E74FF0FF307047FDF776BCFEF70CB9A4
:1050300000F01F00800000F1A040D0F8003723F4FA
:10504000403343EA0143C0F80037704743685B6868
:10505000D3F810350B600020704743685B68D3F8C5
:10506000040542400A404240C3F80425002070472E
:1050700043685B680020C3F80815704743685B68A5
:105080000020C3F80C15704743685A68D2F80435FD
:105090004B40C2F8043500207047C368586830B5EB
:1050A00058B10024814213D108685CB99C685860EB
:1050B000A14200D198600020086072B9002030BD84
:1050C0002846EFE720609868814208BF9C60F2E7BD
:1050D00005680446002DF3D13AB15A680A60986811
:1050E00059600028EAD19960E9E76FF01500E6E71A
:1050F000CA07436805D4C1F34202012A04D0022A38
:105100000BD06FF0150070471B684FF0CC72C3F8DE
:105110002425C3680020596270471B684FF0CD6298
:10512000F5E743681B68D3F80423D20518D5D3F8F4
:105130002021AAB14FF02001EFF3118281F31188F1
:10514000BFF36F8FD3F8201131B10021C3F82011C4
:10515000D3F820110121D96082F31188BFF36F8F3A
:105160007047C2680B46D2E9010183E803000020C2
:10517000704743681B68D3F88004C3F88004704705
:1051800042681368D3F8580138B9927932B9D3F824
:105190002001003818BF0120704701207047436884
:1051A000C2681B68D3F8100148B1527B0A70002016
:1051B000C3F81001D3F8102101221A6070474FF094
:1051C000FF30704708B50020FDF7DCFB004700F01A
:1051D00082B908B50020FDF771F818B9BDE808409C
:1051E000FDF75CB808BD8B6A0246486B984210B563
:1051F0004FF0010305D2496A095CC2F81C15184634
:1052000004E091F82C0010B1D361002010BD0C6AAD
:10521000640603D5D36181F82D30F7E75361EEE7DB
:1052200070B5D0F8046104460D462EB10023C0F8D5
:105230000431D0F80431012695F82F0020B3002363
:10524000C4F82431D4F82421C4F81C31D4F81C212A
:10525000C4F80831D4F80831002E68D095F82F0032
:10526000002385F82D3088BBAB6A6A6B9A421CBF5D
:105270000646052386F001061CBFC4F80005C4F8E5
:10528000003585F82F6022E0D4F8242142B1C4F81B
:105290002401D4F824310123636185F82F30DBE742
:1052A000D4F81C31A3B1C4F81C21D4F81C316B6BA9
:1052B00001336B63D4F8243113B1C4F82421E8E737
:1052C00029462046FFF78FFF0028C5D1002070BD7A
:1052D000D4F80821002ABFD0C4F80831D4F8082136
:1052E000D4F8242112B1C4F82431D2E76B6BAA6A36
:1052F0009342B1D26A6AD4F81815D1546B6BAA6A7A
:105300000133511E8B426B6308D1296A490610D4C0
:105310000223C4F80032012323629DE79342FAD1AD
:105320002B6A5B0698D5022385F82D30CFE7012044
:10533000CDE79342EFD1F6E7F8B505460E464FF0BC
:105340002003EFF3118783F31188BFF36F8FFFF70B
:1053500075F8314604462846FFF734FF87F3118875
:10536000BFF36F8F2046BDE8F840FDF7D7B9FFF7D0
:10537000D4BD034620B9EFF305820AB9FCF774BF28
:1053800083F31188BFF36F8F70474FF02003EFF363
:10539000118083F31188BFF36F8FFFF7EABF0146D7
:1053A00008B58068FEF76CFD4B7B23F002034B735E
:1053B00000238B6008BD03460068834203D00028A9
:1053C00038BF002070470020704710B54FF0200311
:1053D000EFF3118483F31188BFF36F8FFEF7AAFDFB
:1053E00084F31188BFF36F8F10BD70B504464FF082
:1053F0002003EFF3118683F31188BFF36F8F50F80A
:10540000103CA0F1180513B12846FFF7C8FF14F8A7
:105410000B3C23F0140304F80B3C2846FEF78AFDEE
:1054200086F31188BFF36F8F70BD38B504460D4603
:10543000FEF708FF637B43F002036373C5B12B687B
:10544000A5609D4208BF0023002B38BF002383B115
:1054500094F90E1093F90E20914204DB6A689A4287
:1054600007D01B68F3E75A68C4E9003214605C6037
:1054700038BD6B6863606B6825601C606C60F7E723
:1054800038B54FF02003EFF3118283F31188BFF397
:105490006F8FFFF790FF044682F31188BFF36F8F81
:1054A00088B14FF02003EFF3118583F31188BFF328
:1054B0006F8FFFF774FF85F31188BFF36F8F04F1CF
:1054C000180000F00CF8204638BDEFF305800038D6
:1054D00018BF0120704708B1FDF76ABA704710B5D0
:1054E0004FF02002EFF3118482F31188BFF36F8F26
:1054F00003683BB1FFF7A0F8002084F31188BFF3E5
:105500006F8F10BD6FF01500F7E710B54FF0200357
:10551000EFF3118483F31188BFF36F8FFFF7A6F8C1
:1055200084F31188BFF36F8F10BD70B504460D462C
:105530004FF02003EFF3118683F31188BFF36F8FD1
:10554000FFF794F8012805DDA04203DD2946204637
:10555000FCF7DAFD86F31188BFF36F8F70BD08B5D5
:10556000FFF7A4F908BD10B400F10C04C0E903442E
:0855700010BCFFF741BB7047BE
:08557800D4B3FF7F0100000025
:105580005529000000000000214F0000000000002D
:10559000E148000000000000712800000000000049
:1055A000BD1D00004C000020F93000005C00002010
:1055B000C91C000000000000B52000006C000020A5
:1055C000C52900007C000020912D00008C000020E7
:1055D000D1350000CD510000000000002B4F00002D
:1055E0005C00002023510000253A0000CD5100004E
:1055F000000000002B4F0000000000002B4F0000B7
:10560000000000007D2C0000000000002B4F000077
:10561000000000002B4F0000000000002B4F000096
:10562000000000002B4F0000000000002B4F000086
:10563000000000002B4F0000000000002B4F000076
:10564000000000002B4F0000000000002B4F000066
:10565000000000002B4F0000000000008920000027
:10566000000000002B4F0000000000002B4F000046
:10567000000000002B4F0000000000002B4F000036
:10568000000000002B4F0000000000002B4F000026
:10569000000000002B4F0000000000002B4F000016
:1056A000000000002B4F0000000000002B4F000006
:1056B000000000002B4F0000000000002B4F0000F6
:1056C000000000002B4F0000000000002B4F0000E6
:1056D000000000002B4F0000000000002B4F0000D6
:1056E000000000002B4F0000000000002B4F0000C6
:1056F000000000002B4F0000000000002B4F0000B6
:08570000000000002B4F000027
:08570800FFFFFFFFFFFFFFFFA1
:105710000338FDD870470000211F0000BB4E000079
:10572000E34E000000000000F74D00006D1E000079
:10573000F51E0000D11E0000B54E0000651D0000E2
:105740001D1D000000000000020000005057000076
:10575000000000008C580000240002070000002018
:10576000945800001E000B11F52900004D50000058
:105770005B500000715000007D5000008950000017
:10578000AD2A00009B50000000000000FFFFFFFF5B
:105790000000005000000000F1500000F92D000052
:1057A0000000000000000000000000000030004089
:1057B000000000001B0000001A000000000098011B
:1057C000000000009F5100004130000073510000B4
:1057D000E12E00006351000000200040060001009F
:1057E00080550000B8550000C0550000D05500009D
:1057F000D0550000F5FFFFFF4932435F300046619E
:10580000696C656420746F2066696E642073656ED0
:10581000736F72204932430A00446174613A202553
:10582000662043656C0A2020616363656C20252037
:10583000662025206620252066206D2F732F730A91
:1058400020206779726F2020252066202520662081
:10585000252066207261642F730A00286E696C2906
:1058600000554152545F3000434C4F434B00737915
:10587000735F636C6F636B005465726D696E616C0E
:10588000005254540053454747455200464C41533B
:10589000485F30005352414D5F30004750494F5FE1
:1058A000300000000101000000010100000076321C
:1058B0002E342E302D6E6373312D313731302D67FC
:1058C000356137623465623731303437002A2A2A2D
:1058D00020426F6F74696E67205A65706879722014
:1058E0004F53206275696C64202573202573202A2C
:0C58F0002A2A0A006D61696E00000000A9
:1058FC005D49000023500000080000200800002033
:10590C000100000001000000180000201800002019
:10591C00000000000100000000000000000000007A
:10592C000000000000C201000001030000000000A4
:0C593C000090D003440000204400002034
:10594800685800002C57000018570000C0010020BC
:1059580061580000D8570000C457000030000020EC
:105968006E58000000000000000000000000000069
:105978009B5800008C57000068570000C4020020A4
:10598800F8570000AC5700009857000008000020A6
:04599800000000000B
:04000003000024E5F0
:00000001FF
